{
	"contractName": "DocumentContract",
	"abi": [
		{
			"inputs": [],
			"payable": false,
			"stateMutability": "nonpayable",
			"type": "constructor"
		},
		{
			"anonymous": false,
			"inputs": [
				{
					"indexed": false,
					"internalType": "uint256",
					"name": "id",
					"type": "uint256"
				},
				{
					"indexed": false,
					"internalType": "string",
					"name": "user",
					"type": "string"
				},
				{
					"indexed": false,
					"internalType": "string",
					"name": "doctor",
					"type": "string"
				},
				{
					"indexed": false,
					"internalType": "string",
					"name": "docType",
					"type": "string"
				},
				{
					"indexed": false,
					"internalType": "string",
					"name": "link",
					"type": "string"
				}
			],
			"name": "DocumentAdded",
			"type": "event"
		},
		{
			"constant": true,
			"inputs": [],
			"name": "docCount",
			"outputs": [
				{
					"internalType": "uint256",
					"name": "",
					"type": "uint256"
				}
			],
			"payable": false,
			"stateMutability": "view",
			"type": "function"
		},
		{
			"constant": true,
			"inputs": [
				{
					"internalType": "uint256",
					"name": "",
					"type": "uint256"
				}
			],
			"name": "docList",
			"outputs": [
				{
					"internalType": "uint256",
					"name": "id",
					"type": "uint256"
				},
				{
					"internalType": "string",
					"name": "user",
					"type": "string"
				},
				{
					"internalType": "string",
					"name": "doctor",
					"type": "string"
				},
				{
					"internalType": "string",
					"name": "docType",
					"type": "string"
				},
				{
					"internalType": "string",
					"name": "link",
					"type": "string"
				}
			],
			"payable": false,
			"stateMutability": "view",
			"type": "function"
		},
		{
			"constant": false,
			"inputs": [
				{
					"internalType": "string",
					"name": "_user",
					"type": "string"
				},
				{
					"internalType": "string",
					"name": "_doctor",
					"type": "string"
				},
				{
					"internalType": "string",
					"name": "_docType",
					"type": "string"
				},
				{
					"internalType": "string",
					"name": "_link",
					"type": "string"
				}
			],
			"name": "addDocument",
			"outputs": [],
			"payable": false,
			"stateMutability": "nonpayable",
			"type": "function"
		},
		{
			"constant": false,
			"inputs": [
				{
					"internalType": "uint256",
					"name": "_id",
					"type": "uint256"
				}
			],
			"name": "getDocument",
			"outputs": [
				{
					"internalType": "string",
					"name": "",
					"type": "string"
				}
			],
			"payable": false,
			"stateMutability": "nonpayable",
			"type": "function"
		}
	],
	"bytecode": "0x608060405234801561001057600080fd5b506000808190555060018060405180807f50000000000000000000000000000000000000000000000000000000000000008152506001019050908152602001604051809103902060006101000a81548160ff0219169083151502179055506000600160405180807f52000000000000000000000000000000000000000000000000000000000000008152506001019050908152602001604051809103902060006101000a81548160ff021916908315150217905550611303806100d46000396000f3fe608060405234801561001057600080fd5b506004361061004c5760003560e01c80630e72ca7a146100515780633f9b250a146102d15780634c4dc6e01461037857806369d7427d14610396575b600080fd5b6102cf6004803603608081101561006757600080fd5b810190808035906020019064010000000081111561008457600080fd5b82018360208201111561009657600080fd5b803590602001918460018302840111640100000000831117156100b857600080fd5b91908080601f016020809104026020016040519081016040528093929190818152602001838380828437600081840152601f19601f8201169050808301925050505050505091929192908035906020019064010000000081111561011b57600080fd5b82018360208201111561012d57600080fd5b8035906020019184600183028401116401000000008311171561014f57600080fd5b91908080601f016020809104026020016040519081016040528093929190818152602001838380828437600081840152601f19601f820116905080830192505050505050509192919290803590602001906401000000008111156101b257600080fd5b8201836020820111156101c457600080fd5b803590602001918460018302840111640100000000831117156101e657600080fd5b91908080601f016020809104026020016040519081016040528093929190818152602001838380828437600081840152601f19601f8201169050808301925050505050505091929192908035906020019064010000000081111561024957600080fd5b82018360208201111561025b57600080fd5b8035906020019184600183028401116401000000008311171561027d57600080fd5b91908080601f016020809104026020016040519081016040528093929190818152602001838380828437600081840152601f19601f820116905080830192505050505050509192919290505050610588565b005b6102fd600480360360208110156102e757600080fd5b8101908080359060200190929190505050610b34565b6040518080602001828103825283818151815260200191508051906020019080838360005b8381101561033d578082015181840152602081019050610322565b50505050905090810190601f16801561036a5780820380516001836020036101000a031916815260200191505b509250505060405180910390f35b610380610e60565b6040518082815260200191505060405180910390f35b6103c2600480360360208110156103ac57600080fd5b8101908080359060200190929190505050610e66565b6040518086815260200180602001806020018060200180602001858103855289818151815260200191508051906020019080838360005b838110156104145780820151818401526020810190506103f9565b50505050905090810190601f1680156104415780820380516001836020036101000a031916815260200191505b50858103845288818151815260200191508051906020019080838360005b8381101561047a57808201518184015260208101905061045f565b50505050905090810190601f1680156104a75780820380516001836020036101000a031916815260200191505b50858103835287818151815260200191508051906020019080838360005b838110156104e05780820151818401526020810190506104c5565b50505050905090810190601f16801561050d5780820380516001836020036101000a031916815260200191505b50858103825286818151815260200191508051906020019080838360005b8381101561054657808201518184015260208101905061052b565b50505050905090810190601f1680156105735780820380516001836020036101000a031916815260200191505b50995050505050505050505060405180910390f35b6000808154809291906001019190505550600115156001836040518082805190602001908083835b602083106105d357805182526020820191506020810190506020830392506105b0565b6001836020036101000a038019825116818451168082178552505050505050905001915050908152602001604051809103902060009054906101000a900460ff16151514156108cc576040518060a00160405280600054815260200185815260200184815260200183815260200182815250600260008054815260200190815260200160002060008201518160000155602082015181600101908051906020019061067f929190611229565b50604082015181600201908051906020019061069c929190611229565b5060608201518160030190805190602001906106b9929190611229565b5060808201518160040190805190602001906106d6929190611229565b509050507f1439ab0b6af0465ebecd5c89828743b8f98f310c13afafced211fc1e0e3090cf600054858585856040518086815260200180602001806020018060200180602001858103855289818151815260200191508051906020019080838360005b83811015610754578082015181840152602081019050610739565b50505050905090810190601f1680156107815780820380516001836020036101000a031916815260200191505b50858103845288818151815260200191508051906020019080838360005b838110156107ba57808201518184015260208101905061079f565b50505050905090810190601f1680156107e75780820380516001836020036101000a031916815260200191505b50858103835287818151815260200191508051906020019080838360005b83811015610820578082015181840152602081019050610805565b50505050905090810190601f16801561084d5780820380516001836020036101000a031916815260200191505b50858103825286818151815260200191508051906020019080838360005b8381101561088657808201518184015260208101905061086b565b50505050905090810190601f1680156108b35780820380516001836020036101000a031916815260200191505b50995050505050505050505060405180910390a1610b2e565b6040518060a00160405280600054815260200185815260200160405180602001604052806000815250815260200183815260200182815250600260008054815260200190815260200160002060008201518160000155602082015181600101908051906020019061093e929190611229565b50604082015181600201908051906020019061095b929190611229565b506060820151816003019080519060200190610978929190611229565b506080820151816004019080519060200190610995929190611229565b509050507f1439ab0b6af0465ebecd5c89828743b8f98f310c13afafced211fc1e0e3090cf6000548584846040518085815260200180602001806020018060200180602001858103855288818151815260200191508051906020019080838360005b83811015610a125780820151818401526020810190506109f7565b50505050905090810190601f168015610a3f5780820380516001836020036101000a031916815260200191505b50858103845260008152602001602001858103835287818151815260200191508051906020019080838360005b83811015610a87578082015181840152602081019050610a6c565b50505050905090810190601f168015610ab45780820380516001836020036101000a031916815260200191505b50858103825286818151815260200191508051906020019080838360005b83811015610aed578082015181840152602081019050610ad2565b50505050905090810190601f168015610b1a5780820380516001836020036101000a031916815260200191505b509850505050505050505060405180910390a15b50505050565b6060610b3f826110fc565b6002600084815260200190815260200160002060010160026000858152602001908152602001600020600201600260008681526020019081526020016000206003016002600087815260200190815260200160002060040160405160200180807f7b69643a2000000000000000000000000000000000000000000000000000000081525060050186805190602001908083835b60208310610bf55780518252602082019150602081019050602083039250610bd2565b6001836020036101000a038019825116818451168082178552505050505050905001807f2c757365723a200000000000000000000000000000000000000000000000000081525060070185805460018160011615610100020316600290048015610c965780601f10610c74576101008083540402835291820191610c96565b820191906000526020600020905b815481529060010190602001808311610c82575b5050807f2c646f63746f723a20000000000000000000000000000000000000000000000081525060090184805460018160011615610100020316600290048015610d175780601f10610cf5576101008083540402835291820191610d17565b820191906000526020600020905b815481529060010190602001808311610d03575b5050807f2c646f63547970653a2000000000000000000000000000000000000000000000815250600a0183805460018160011615610100020316600290048015610d985780601f10610d76576101008083540402835291820191610d98565b820191906000526020600020905b815481529060010190602001808311610d84575b5050807f2c6c696e6b3a200000000000000000000000000000000000000000000000000081525060070182805460018160011615610100020316600290048015610e195780601f10610df7576101008083540402835291820191610e19565b820191906000526020600020905b815481529060010190602001808311610e05575b5050807f7d00000000000000000000000000000000000000000000000000000000000000815250600101955050505050506040516020818303038152906040529050919050565b60005481565b6002602052806000526040600020600091509050806000015490806001018054600181600116156101000203166002900480601f016020809104026020016040519081016040528092919081815260200182805460018160011615610100020316600290048015610f185780601f10610eed57610100808354040283529160200191610f18565b820191906000526020600020905b815481529060010190602001808311610efb57829003601f168201915b505050505090806002018054600181600116156101000203166002900480601f016020809104026020016040519081016040528092919081815260200182805460018160011615610100020316600290048015610fb65780601f10610f8b57610100808354040283529160200191610fb6565b820191906000526020600020905b815481529060010190602001808311610f9957829003601f168201915b505050505090806003018054600181600116156101000203166002900480601f0160208091040260200160405190810160405280929190818152602001828054600181600116156101000203166002900480156110545780601f1061102957610100808354040283529160200191611054565b820191906000526020600020905b81548152906001019060200180831161103757829003601f168201915b505050505090806004018054600181600116156101000203166002900480601f0160208091040260200160405190810160405280929190818152602001828054600181600116156101000203166002900480156110f25780601f106110c7576101008083540402835291602001916110f2565b820191906000526020600020905b8154815290600101906020018083116110d557829003601f168201915b5050505050905085565b60606000821415611144576040518060400160405280600181526020017f30000000000000000000000000000000000000000000000000000000000000008152509050611224565b600082905060005b6000821461116e578080600101915050600a828161116657fe5b04915061114c565b6060816040519080825280601f01601f1916602001820160405280156111a35781602001600182028038833980820191505090505b50905060006001830390505b6000861461121c57600a86816111c157fe5b0660300160f81b828280600190039350815181106111db57fe5b60200101907effffffffffffffffffffffffffffffffffffffffffffffffffffffffffffff1916908160001a905350600a868161121457fe5b0495506111af565b819450505050505b919050565b828054600181600116156101000203166002900490600052602060002090601f016020900481019282601f1061126a57805160ff1916838001178555611298565b82800160010185558215611298579182015b8281111561129757825182559160200191906001019061127c565b5b5090506112a591906112a9565b5090565b6112cb91905b808211156112c75760008160009055506001016112af565b5090565b9056fea265627a7a72315820c97b4b1f9a70e027ae1ad66418a7351822e62fbd949c3d2749cc9552c7686def64736f6c63430005100032",
	"source": "pragma solidity ^0.5.0;\r\n\r\ncontract DocumentContract {\r\n    uint public docCount;\r\n    mapping (string => bool) stringMap;\r\n    constructor () public {\r\n        docCount = 0;\r\n        stringMap[\"P\"] = true;\r\n        stringMap[\"R\"] = false;\r\n    }\r\n\r\n    struct Document {\r\n        uint id;\r\n        string user;\r\n        string doctor;\r\n        string docType;\r\n        string link;\r\n    }\r\n\r\n    event DocumentAdded(\r\n        uint id,\r\n        string user,\r\n        string doctor,\r\n        string docType,\r\n        string link\r\n    );\r\n\r\n    mapping (uint => Document) public docList;     \r\n\r\n    function addDocument(string memory _user, string memory _doctor, string memory _docType, string memory _link) public {\r\n        docCount++;\r\n        if(stringMap[_docType] == true){\r\n            docList[docCount] = Document(docCount, _user, _doctor, _docType, _link);\r\n            emit DocumentAdded(docCount, _user, _doctor, _docType, _link);\r\n        }else{\r\n            docList[docCount] = Document(docCount, _user, \"\", _docType, _link);\r\n            emit DocumentAdded(docCount, _user, \"\", _docType, _link);\r\n        }\r\n    }\r\n\r\n    function uint2str(uint _i) internal pure returns (string memory _uintAsString) {\r\n        if (_i == 0) {\r\n            return \"0\";\r\n        }\r\n        uint j = _i;\r\n        uint len;\r\n        while (j != 0) {\r\n            len++;\r\n            j /= 10;\r\n        }\r\n        bytes memory bstr = new bytes(len);\r\n        uint k = len - 1;\r\n        while (_i != 0) {\r\n            bstr[k--] = byte(uint8(48 + _i % 10));\r\n            _i /= 10;\r\n        }\r\n        return string(bstr);\r\n    }\r\n\r\n    function getDocument(uint _id) public returns (string memory) {\r\n        return string(abi.encodePacked(\"{id: \", uint2str(_id), \",user: \", docList[_id].user, \",doctor: \", docList[_id].doctor, \",docType: \", docList[_id].docType, \",link: \", docList[_id].link, \"}\"));\r\n    }\r\n}",
	"sourcePath": "D:\\Codes\\blockchain\\ilaaj\\contracts\\DocumentContract.sol",
	"compiler": {
		"name": "solc",
		"version": "0.5.16+commit.9c3226ce.Emscripten.clang"
	},
	"schemaVersion": "3.0.23",
	"updatedAt": "2020-08-19T21:52:01.278Z",
	"devdoc": {
		"methods": {}
	},
	"userdoc": {
		"methods": {}
	}
}